:100000000C942A000C9434000C9434000C943400AA
:100010000C9434000C9434000C9434000C94340090
:100020000C9434000C9434000C9434000C94340080
:100030000C9434000C9434000C9434000C94340070
:100040000C9434000C9434000C9434000C94340060
:100050000C94340011241FBECFE5D8E0DEBFCDBF25
:100060000E9436000C9444010C940000D09AC1E028
:100070008BB38C278BBB13BE12BE83B7816083BF4B
:10008000C12CD12C760108B600FEFDCF88B7816067
:1000900088BF20E030E040E85FE3C701B6010E947E
:1000A0005E006B017C0120E034E244E755E40E94ED
:1000B000CA0087FDE8CF13BEDBCF5058BB27AA2765
:1000C0000E9475000C940A010E94FC0038F00E9406
:1000D000030120F039F49F3F19F426F40C94F90041
:1000E0000EF4E095E7FB0C94F300E92F0E941B014E
:1000F00058F3BA17620773078407950720F079F45D
:10010000A6F50C943D010EF4E0950B2EBA2FA02D10
:100110000B01B90190010C01CA01A0011124FF27B4
:10012000591B99F0593F50F4503E68F11A16F040AF
:10013000A22F232F342F4427585FF3CF46953795AE
:100140002795A795F0405395C9F77EF41F16BA0B73
:10015000620B730B840BBAF09150A1F0FF0FBB1F21
:10016000661F771F881FC2F70EC0BA0F621F731F6A
:10017000841F48F4879577956795B795F7959E3FC7
:1001800008F0B0CF9395880F08F09927EE0F979558
:10019000879508950E94CF0008F481E00895990F93
:1001A0000008550FAA0BE0E8FEEF16161706E80741
:1001B000F907C0F012161306E407F50798F0621B62
:1001C000730B840B950B39F40A2661F0232B242B37
:1001D000252B21F408950A2609F4A140A6958FEF56
:1001E000811D811D089597F99F6780E870E060E0A8
:1001F00008959FEF80EC089500240A9416161706C0
:1002000018060906089500240A9412161306140607
:1002100005060895092E0394000C11F4882352F06A
:10022000BB0F40F4BF2B11F460FF04C06F5F7F4F22
:100230008F4F9F4F089557FD9058440F551F59F009
:100240005F3F71F04795880F97FB991F61F09F3FC3
:1002500079F087950895121613061406551FF2CFEC
:100260004695F1DF08C0161617061806991FF1CF3C
:1002700086957105610508940895E894BB27662763
:0C0280007727CB0197F90895F894FFCF81
:00000001FF
