:100000000C942A000C9434000C9434000C943400AA
:100010000C9434000C9434000C9434000C94340090
:100020000C9434000C9434000C9434000C94340080
:100030000C9434000C9434000C9434000C94340070
:100040000C9434000C9434000C9434000C94340060
:100050000C94340011241FBECFE5D8E0DEBFCDBF25
:100060000E945E000C9490000C94000046B3E1E006
:10007000F0E0082E02C0EE0FFF1F0A94E2F750E0F6
:100080004E235F23082E02C0559547950A94E2F748
:100090004130510521F481E0FB018083089596B33E
:1000A000292F30E02E233F2302C0359527958A95CE
:1000B000E2F7232B11F4FB0110820895CF93DF9315
:1000C00000D01F92CDB7DEB7D09AD19AB898B99820
:1000D000BA9819821A821B82BE016F5F7F4F80E03F
:1000E0000E943600BE016E5F7F4F81E00E943600A5
:1000F000BE016D5F7F4F82E00E94360089818130B2
:1001000019F4D89AD998E5CF8A81813019F4D99A0F
:10011000D898DFCF8B818130E1F6D89AD99AD9CFA0
:04012000F894FFCF81
:00000001FF
