:100000000C942A000C9434000C9434000C943400AA
:100010000C9434000C9434000C9434000C94340090
:100020000C9434000C9434000C9434000C94340080
:100030000C9434000C9434000C9434000C94340070
:100040000C9434000C9434000C9434000C94340060
:100050000C94340011241FBECFE5D8E0DEBFCDBF25
:100060000E9436000C94B0010C940000A09AA19A52
:10007000A29AA39AA49AA59AA69AD098D198C0E0D9
:10008000C89941C089B310E0C9993FC089B3D0E095
:1000900013BE12BE83B7816083BFC12CD12C760101
:1000A00008B600FEFDCF88B7816088BF20E030E051
:1000B00040E85FE3C701B6010E94C4006B017C0108
:1000C00020E03CE742E954E40E94300187FDE8CF9C
:1000D00013BE1130E1F4C930D1F0CF5FD13009F453
:1000E000C150EFEFEC0FE930B0F4F0E0E658FF4F0D
:1000F0000C94AA0193009B00A300A900AF00B400D8
:10010000BB00BD00C00011E0BFCFD1E0C1CFD130F6
:1001100041F7C111E5CFA89AA99AAA9AAB9AAC9ACD
:10012000AD9AAE98ACCFA898A99AAA9AAB98AC9879
:10013000AD98AE98A5CFA89AA99AAA98AB9AAC9A6E
:10014000AD98AE9A9DCFA89AA99AAA9AAB9AAC9864
:10015000F7CFA898A99AAA9AAB98AC980AC0A89A7F
:10016000A998AA9AAB9AF9CFA89AA998AA9AAB9AF1
:10017000AC9AAD9AE6CFA89AD7CFA89AA99AF6CF0B
:10018000A89AA99AEECF5058BB27AA270E94DB0055
:100190000C9470010E94620138F00E94690120F005
:1001A00039F49F3F19F426F40C945F010EF4E095A6
:1001B000E7FB0C945901E92F0E94810158F3BA170B
:1001C000620773078407950720F079F4A6F50C946D
:1001D000A3010EF4E0950B2EBA2FA02D0B01B9014F
:1001E00090010C01CA01A0011124FF27591B99F0AD
:1001F000593F50F4503E68F11A16F040A22F232FB9
:10020000342F4427585FF3CF469537952795A79508
:10021000F0405395C9F77EF41F16BA0B620B730BAF
:10022000840BBAF09150A1F0FF0FBB1F661F771F20
:10023000881FC2F70EC0BA0F621F731F841F48F4D5
:10024000879577956795B795F7959E3F08F0B0CF5E
:100250009395880F08F09927EE0F97958795089545
:100260000E94350108F481E00895990F0008550FA8
:10027000AA0BE0E8FEEF16161706E807F907C0F02C
:1002800012161306E407F50798F0621B730B840B34
:10029000950B39F40A2661F0232B242B252B21F40E
:1002A00008950A2609F4A140A6958FEF811D811DAE
:1002B000089597F99F6780E870E060E008959FEFE8
:1002C00080EC089500240A941616170618060906ED
:1002D000089500240A9412161306140605060895BC
:1002E000092E0394000C11F4882352F0BB0F40F444
:1002F000BF2B11F460FF04C06F5F7F4F8F4F9F4F84
:10030000089557FD9058440F551F59F05F3F71F005
:100310004795880F97FB991F61F09F3F79F087956C
:100320000895121613061406551FF2CF4695F1DFF5
:1003300008C0161617061806991FF1CF8695710585
:10034000610508940895E894BB2766277727CB01B9
:1003500097F90895EE0FFF1F0590F491E02D099491
:04036000F894FFCF3F
:00000001FF
